{
  "contractName": "CommunityRewardsApprove",
  "abi": [
    {
      "inputs": [
        {
          "internalType": "contract IERC20",
          "name": "_token",
          "type": "address"
        },
        {
          "internalType": "address",
          "name": "_tokenWallet",
          "type": "address"
        }
      ],
      "stateMutability": "nonpayable",
      "type": "constructor"
    },
    {
      "anonymous": false,
      "inputs": [
        {
          "indexed": true,
          "internalType": "address",
          "name": "previousOwner",
          "type": "address"
        },
        {
          "indexed": true,
          "internalType": "address",
          "name": "newOwner",
          "type": "address"
        }
      ],
      "name": "OwnershipTransferred",
      "type": "event"
    },
    {
      "anonymous": false,
      "inputs": [
        {
          "indexed": false,
          "internalType": "address",
          "name": "wallet",
          "type": "address"
        },
        {
          "indexed": false,
          "internalType": "address",
          "name": "account",
          "type": "address"
        },
        {
          "indexed": false,
          "internalType": "uint256",
          "name": "amount",
          "type": "uint256"
        }
      ],
      "name": "releaseEvent",
      "type": "event"
    },
    {
      "inputs": [],
      "name": "owner",
      "outputs": [
        {
          "internalType": "address",
          "name": "",
          "type": "address"
        }
      ],
      "stateMutability": "view",
      "type": "function",
      "constant": true
    },
    {
      "inputs": [],
      "name": "renounceOwnership",
      "outputs": [],
      "stateMutability": "nonpayable",
      "type": "function"
    },
    {
      "inputs": [],
      "name": "token",
      "outputs": [
        {
          "internalType": "contract IERC20",
          "name": "",
          "type": "address"
        }
      ],
      "stateMutability": "view",
      "type": "function",
      "constant": true
    },
    {
      "inputs": [],
      "name": "tokenWallet",
      "outputs": [
        {
          "internalType": "address",
          "name": "",
          "type": "address"
        }
      ],
      "stateMutability": "view",
      "type": "function",
      "constant": true
    },
    {
      "inputs": [
        {
          "internalType": "address",
          "name": "newOwner",
          "type": "address"
        }
      ],
      "name": "transferOwnership",
      "outputs": [],
      "stateMutability": "nonpayable",
      "type": "function"
    },
    {
      "inputs": [
        {
          "internalType": "address",
          "name": "newTokenWallet",
          "type": "address"
        }
      ],
      "name": "setTokenWallet",
      "outputs": [],
      "stateMutability": "nonpayable",
      "type": "function"
    },
    {
      "inputs": [],
      "name": "getMemberList",
      "outputs": [
        {
          "internalType": "address[]",
          "name": "",
          "type": "address[]"
        }
      ],
      "stateMutability": "view",
      "type": "function",
      "constant": true
    },
    {
      "inputs": [
        {
          "internalType": "address",
          "name": "account",
          "type": "address"
        }
      ],
      "name": "getRewardsInfoByAccountForAdmin",
      "outputs": [
        {
          "components": [
            {
              "internalType": "address",
              "name": "rewardsToken",
              "type": "address"
            },
            {
              "internalType": "uint256",
              "name": "rewardsAmount",
              "type": "uint256"
            }
          ],
          "internalType": "struct CommunityRewardsApprove.RewardsInfo",
          "name": "",
          "type": "tuple"
        }
      ],
      "stateMutability": "view",
      "type": "function",
      "constant": true
    },
    {
      "inputs": [],
      "name": "getRewardsInfoByAccount",
      "outputs": [
        {
          "components": [
            {
              "internalType": "address",
              "name": "rewardsToken",
              "type": "address"
            },
            {
              "internalType": "uint256",
              "name": "rewardsAmount",
              "type": "uint256"
            }
          ],
          "internalType": "struct CommunityRewardsApprove.RewardsInfo",
          "name": "",
          "type": "tuple"
        }
      ],
      "stateMutability": "view",
      "type": "function",
      "constant": true
    },
    {
      "inputs": [
        {
          "internalType": "address",
          "name": "rewardsToken",
          "type": "address"
        },
        {
          "internalType": "uint256",
          "name": "rewardsAmount",
          "type": "uint256"
        }
      ],
      "name": "updateRewardsAmount",
      "outputs": [],
      "stateMutability": "nonpayable",
      "type": "function"
    },
    {
      "inputs": [
        {
          "components": [
            {
              "internalType": "address",
              "name": "token",
              "type": "address"
            },
            {
              "internalType": "uint256",
              "name": "amount",
              "type": "uint256"
            }
          ],
          "internalType": "struct CommunityRewardsApprove.ReportInfo[]",
          "name": "list",
          "type": "tuple[]"
        }
      ],
      "name": "updateRewardsList",
      "outputs": [],
      "stateMutability": "nonpayable",
      "type": "function"
    },
    {
      "inputs": [
        {
          "internalType": "address",
          "name": "rewardsToken",
          "type": "address"
        },
        {
          "internalType": "uint256",
          "name": "releaseAmount",
          "type": "uint256"
        }
      ],
      "name": "releaseByAdmin",
      "outputs": [],
      "stateMutability": "nonpayable",
      "type": "function"
    },
    {
      "inputs": [
        {
          "internalType": "uint256",
          "name": "getRewardAmount",
          "type": "uint256"
        }
      ],
      "name": "getReward",
      "outputs": [],
      "stateMutability": "nonpayable",
      "type": "function"
    },
    {
      "inputs": [
        {
          "internalType": "address payable",
          "name": "recipientToken",
          "type": "address"
        }
      ],
      "name": "killSelf",
      "outputs": [],
      "stateMutability": "nonpayable",
      "type": "function"
    }
  ],
  "bytecode": "0x60806040523480156200001157600080fd5b5060405162002cd838038062002cd88339818101604052810190620000379190620002c1565b620000576200004b620001c760201b60201c565b620001cf60201b60201c565b600073ffffffffffffffffffffffffffffffffffffffff168273ffffffffffffffffffffffffffffffffffffffff161415620000ca576040517f08c379a0000000000000000000000000000000000000000000000000000000008152600401620000c19062000372565b60405180910390fd5b600073ffffffffffffffffffffffffffffffffffffffff168173ffffffffffffffffffffffffffffffffffffffff1614156200013d576040517f08c379a0000000000000000000000000000000000000000000000000000000008152600401620001349062000350565b60405180910390fd5b81600160006101000a81548173ffffffffffffffffffffffffffffffffffffffff021916908373ffffffffffffffffffffffffffffffffffffffff16021790555080600260006101000a81548173ffffffffffffffffffffffffffffffffffffffff021916908373ffffffffffffffffffffffffffffffffffffffff1602179055505050620004bf565b600033905090565b60008060009054906101000a900473ffffffffffffffffffffffffffffffffffffffff169050816000806101000a81548173ffffffffffffffffffffffffffffffffffffffff021916908373ffffffffffffffffffffffffffffffffffffffff1602179055508173ffffffffffffffffffffffffffffffffffffffff168173ffffffffffffffffffffffffffffffffffffffff167f8be0079c531659141344cd1fd0a4f28419497f9722a3daafe3b4186f6b6457e060405160405180910390a35050565b600081519050620002a4816200048b565b92915050565b600081519050620002bb81620004a5565b92915050565b60008060408385031215620002d557600080fd5b6000620002e585828601620002aa565b9250506020620002f88582860162000293565b9150509250929050565b60006200031160368362000394565b91506200031e82620003ed565b604082019050919050565b600062000338602b8362000394565b915062000345826200043c565b604082019050919050565b600060208201905081810360008301526200036b8162000302565b9050919050565b600060208201905081810360008301526200038d8162000329565b9050919050565b600082825260208201905092915050565b6000620003b282620003cd565b9050919050565b6000620003c682620003a5565b9050919050565b600073ffffffffffffffffffffffffffffffffffffffff82169050919050565b7f436f6d6d756e697479526577617264733a2054686520746f6b656e2077616c6c60008201527f657420697320746865207a65726f206164647265737300000000000000000000602082015250565b7f436f6d6d756e697479526577617264733a20746f6b656e20697320746865207a60008201527f65726f2061646472657373000000000000000000000000000000000000000000602082015250565b6200049681620003a5565b8114620004a257600080fd5b50565b620004b081620003b9565b8114620004bc57600080fd5b50565b61280980620004cf6000396000f3fe608060405234801561001057600080fd5b50600436106100ea5760003560e01c8063783264bb1161008c578063b61fc27111610066578063b61fc2711461020f578063bff99c6c1461022b578063f2fde38b14610249578063fc0c546a14610265576100ea565b8063783264bb146101a55780638da5cb5b146101d5578063a621344a146101f3576100ea565b80633a507d7d116100c85780633a507d7d146101455780635f5d5f001461016157806366ed43241461017f578063715018a61461019b576100ea565b80630d59655b146100ef5780631c4b774b1461010b57806321b4437b14610127575b600080fd5b610109600480360381019061010491906119f5565b610283565b005b61012560048036038101906101209190611a9b565b610583565b005b61012f610590565b60405161013c919061209f565b60405180910390f35b61015f600480360381019061015a91906119cc565b610647565b005b6101696107d8565b6040516101769190611ea0565b60405180910390f35b610199600480360381019061019491906119f5565b6108e2565b005b6101a361096c565b005b6101bf60048036038101906101ba91906119a3565b6109f4565b6040516101cc919061209f565b60405180910390f35b6101dd610b29565b6040516101ea9190611e25565b60405180910390f35b61020d600480360381019061020891906119a3565b610b52565b005b61022960048036038101906102249190611a31565b610ccb565b005b610233610e14565b6040516102409190611e25565b60405180910390f35b610263600480360381019061025e91906119a3565b610e3a565b005b61026d610f32565b60405161027a9190611ec2565b60405180910390f35b61028b610f58565b73ffffffffffffffffffffffffffffffffffffffff166102a9610b29565b73ffffffffffffffffffffffffffffffffffffffff16146102ff576040517f08c379a00000000000000000000000000000000000000000000000000000000081526004016102f69061201f565b60405180910390fd5b600073ffffffffffffffffffffffffffffffffffffffff168273ffffffffffffffffffffffffffffffffffffffff16141561036f576040517f08c379a000000000000000000000000000000000000000000000000000000000815260040161036690611f1f565b60405180910390fd5b60008110156103b3576040517f08c379a00000000000000000000000000000000000000000000000000000000081526004016103aa90611fdf565b60405180910390fd5b6000600460008473ffffffffffffffffffffffffffffffffffffffff1673ffffffffffffffffffffffffffffffffffffffff1681526020019081526020016000209050600073ffffffffffffffffffffffffffffffffffffffff168160000160009054906101000a900473ffffffffffffffffffffffffffffffffffffffff1673ffffffffffffffffffffffffffffffffffffffff161461045c5781816001018190555061057e565b60405180604001604052808473ffffffffffffffffffffffffffffffffffffffff16815260200183815250600460008573ffffffffffffffffffffffffffffffffffffffff1673ffffffffffffffffffffffffffffffffffffffff16815260200190815260200160002060008201518160000160006101000a81548173ffffffffffffffffffffffffffffffffffffffff021916908373ffffffffffffffffffffffffffffffffffffffff160217905550602082015181600101559050506003839080600181540180825580915050600190039060005260206000200160009091909190916101000a81548173ffffffffffffffffffffffffffffffffffffffff021916908373ffffffffffffffffffffffffffffffffffffffff1602179055505b505050565b61058d3382610f60565b50565b610598611828565b600460003373ffffffffffffffffffffffffffffffffffffffff1673ffffffffffffffffffffffffffffffffffffffff1681526020019081526020016000206040518060400160405290816000820160009054906101000a900473ffffffffffffffffffffffffffffffffffffffff1673ffffffffffffffffffffffffffffffffffffffff1673ffffffffffffffffffffffffffffffffffffffff168152602001600182015481525050905090565b61064f610f58565b73ffffffffffffffffffffffffffffffffffffffff1661066d610b29565b73ffffffffffffffffffffffffffffffffffffffff16146106c3576040517f08c379a00000000000000000000000000000000000000000000000000000000081526004016106ba9061201f565b60405180910390fd5b6000600160009054906101000a900473ffffffffffffffffffffffffffffffffffffffff1673ffffffffffffffffffffffffffffffffffffffff166370a08231306040518263ffffffff1660e01b81526004016107209190611e25565b60206040518083038186803b15801561073857600080fd5b505afa15801561074c573d6000803e3d6000fd5b505050506040513d601f19601f820116820180604052508101906107709190611ac4565b90506107bf8282600160009054906101000a900473ffffffffffffffffffffffffffffffffffffffff1673ffffffffffffffffffffffffffffffffffffffff166111d69092919063ffffffff16565b8173ffffffffffffffffffffffffffffffffffffffff16ff5b60606107e2610f58565b73ffffffffffffffffffffffffffffffffffffffff16610800610b29565b73ffffffffffffffffffffffffffffffffffffffff1614610856576040517f08c379a000000000000000000000000000000000000000000000000000000000815260040161084d9061201f565b60405180910390fd5b60038054806020026020016040519081016040528092919081815260200182805480156108d857602002820191906000526020600020905b8160009054906101000a900473ffffffffffffffffffffffffffffffffffffffff1673ffffffffffffffffffffffffffffffffffffffff168152602001906001019080831161088e575b5050505050905090565b6108ea610f58565b73ffffffffffffffffffffffffffffffffffffffff16610908610b29565b73ffffffffffffffffffffffffffffffffffffffff161461095e576040517f08c379a00000000000000000000000000000000000000000000000000000000081526004016109559061201f565b60405180910390fd5b6109688282610f60565b5050565b610974610f58565b73ffffffffffffffffffffffffffffffffffffffff16610992610b29565b73ffffffffffffffffffffffffffffffffffffffff16146109e8576040517f08c379a00000000000000000000000000000000000000000000000000000000081526004016109df9061201f565b60405180910390fd5b6109f2600061125c565b565b6109fc611828565b610a04610f58565b73ffffffffffffffffffffffffffffffffffffffff16610a22610b29565b73ffffffffffffffffffffffffffffffffffffffff1614610a78576040517f08c379a0000000000000000000000000000000000000000000000000000000008152600401610a6f9061201f565b60405180910390fd5b600460008373ffffffffffffffffffffffffffffffffffffffff1673ffffffffffffffffffffffffffffffffffffffff1681526020019081526020016000206040518060400160405290816000820160009054906101000a900473ffffffffffffffffffffffffffffffffffffffff1673ffffffffffffffffffffffffffffffffffffffff1673ffffffffffffffffffffffffffffffffffffffff1681526020016001820154815250509050919050565b60008060009054906101000a900473ffffffffffffffffffffffffffffffffffffffff16905090565b610b5a610f58565b73ffffffffffffffffffffffffffffffffffffffff16610b78610b29565b73ffffffffffffffffffffffffffffffffffffffff1614610bce576040517f08c379a0000000000000000000000000000000000000000000000000000000008152600401610bc59061201f565b60405180910390fd5b600073ffffffffffffffffffffffffffffffffffffffff168173ffffffffffffffffffffffffffffffffffffffff161415610c3e576040517f08c379a0000000000000000000000000000000000000000000000000000000008152600401610c3590611fbf565b60405180910390fd5b610c4781611320565b15610c87576040517f08c379a0000000000000000000000000000000000000000000000000000000008152600401610c7e90611f9f565b60405180910390fd5b80600260006101000a81548173ffffffffffffffffffffffffffffffffffffffff021916908373ffffffffffffffffffffffffffffffffffffffff16021790555050565b610cd3610f58565b73ffffffffffffffffffffffffffffffffffffffff16610cf1610b29565b73ffffffffffffffffffffffffffffffffffffffff1614610d47576040517f08c379a0000000000000000000000000000000000000000000000000000000008152600401610d3e9061201f565b60405180910390fd5b6000815111610d8b576040517f08c379a0000000000000000000000000000000000000000000000000000000008152600401610d8290611f3f565b60405180910390fd5b60005b8151811015610e10576000828281518110610dd2577f4e487b7100000000000000000000000000000000000000000000000000000000600052603260045260246000fd5b60200260200101519050600081602001511115610dfc57610dfb81600001518260200151611333565b5b508080610e08906122e2565b915050610d8e565b5050565b600260009054906101000a900473ffffffffffffffffffffffffffffffffffffffff1681565b610e42610f58565b73ffffffffffffffffffffffffffffffffffffffff16610e60610b29565b73ffffffffffffffffffffffffffffffffffffffff1614610eb6576040517f08c379a0000000000000000000000000000000000000000000000000000000008152600401610ead9061201f565b60405180910390fd5b600073ffffffffffffffffffffffffffffffffffffffff168173ffffffffffffffffffffffffffffffffffffffff161415610f26576040517f08c379a0000000000000000000000000000000000000000000000000000000008152600401610f1d90611f5f565b60405180910390fd5b610f2f8161125c565b50565b600160009054906101000a900473ffffffffffffffffffffffffffffffffffffffff1681565b600033905090565b600073ffffffffffffffffffffffffffffffffffffffff168273ffffffffffffffffffffffffffffffffffffffff161415610fd0576040517f08c379a0000000000000000000000000000000000000000000000000000000008152600401610fc790611eff565b60405180910390fd5b6000600460008473ffffffffffffffffffffffffffffffffffffffff1673ffffffffffffffffffffffffffffffffffffffff168152602001908152602001600020905060008211611056576040517f08c379a000000000000000000000000000000000000000000000000000000000815260040161104d90611f7f565b60405180910390fd5b600081600101541161109d576040517f08c379a000000000000000000000000000000000000000000000000000000000815260040161109490611f7f565b60405180910390fd5b80600101548211156110e4576040517f08c379a00000000000000000000000000000000000000000000000000000000081526004016110db9061207f565b60405180910390fd5b611155600260009054906101000a900473ffffffffffffffffffffffffffffffffffffffff168484600160009054906101000a900473ffffffffffffffffffffffffffffffffffffffff1673ffffffffffffffffffffffffffffffffffffffff16611519909392919063ffffffff16565b61116c8282600101546115a290919063ffffffff16565b81600101819055507f9d88a67cd3d48d928dc052f32a5c65ff8bb2db4b6bc7d31fe81ae2da54f496f2600260009054906101000a900473ffffffffffffffffffffffffffffffffffffffff1684846040516111c993929190611e40565b60405180910390a1505050565b6112578363a9059cbb60e01b84846040516024016111f5929190611e77565b604051602081830303815290604052907bffffffffffffffffffffffffffffffffffffffffffffffffffffffff19166020820180517bffffffffffffffffffffffffffffffffffffffffffffffffffffffff83818316178352505050506115b8565b505050565b60008060009054906101000a900473ffffffffffffffffffffffffffffffffffffffff169050816000806101000a81548173ffffffffffffffffffffffffffffffffffffffff021916908373ffffffffffffffffffffffffffffffffffffffff1602179055508173ffffffffffffffffffffffffffffffffffffffff168173ffffffffffffffffffffffffffffffffffffffff167f8be0079c531659141344cd1fd0a4f28419497f9722a3daafe3b4186f6b6457e060405160405180910390a35050565b600080823b905060008111915050919050565b6000600460008473ffffffffffffffffffffffffffffffffffffffff1673ffffffffffffffffffffffffffffffffffffffff1681526020019081526020016000209050600073ffffffffffffffffffffffffffffffffffffffff168160000160009054906101000a900473ffffffffffffffffffffffffffffffffffffffff1673ffffffffffffffffffffffffffffffffffffffff16146113f2576113e582826001015461167f90919063ffffffff16565b8160010181905550611514565b60405180604001604052808473ffffffffffffffffffffffffffffffffffffffff16815260200183815250600460008573ffffffffffffffffffffffffffffffffffffffff1673ffffffffffffffffffffffffffffffffffffffff16815260200190815260200160002060008201518160000160006101000a81548173ffffffffffffffffffffffffffffffffffffffff021916908373ffffffffffffffffffffffffffffffffffffffff160217905550602082015181600101559050506003839080600181540180825580915050600190039060005260206000200160009091909190916101000a81548173ffffffffffffffffffffffffffffffffffffffff021916908373ffffffffffffffffffffffffffffffffffffffff1602179055505b505050565b61159c846323b872dd60e01b85858560405160240161153a93929190611e40565b604051602081830303815290604052907bffffffffffffffffffffffffffffffffffffffffffffffffffffffff19166020820180517bffffffffffffffffffffffffffffffffffffffffffffffffffffffff83818316178352505050506115b8565b50505050565b600081836115b091906121cc565b905092915050565b600061161a826040518060400160405280602081526020017f5361666545524332303a206c6f772d6c6576656c2063616c6c206661696c65648152508573ffffffffffffffffffffffffffffffffffffffff166116959092919063ffffffff16565b905060008151111561167a578080602001905181019061163a9190611a72565b611679576040517f08c379a00000000000000000000000000000000000000000000000000000000081526004016116709061205f565b60405180910390fd5b5b505050565b6000818361168d9190612176565b905092915050565b60606116a484846000856116ad565b90509392505050565b6060824710156116f2576040517f08c379a00000000000000000000000000000000000000000000000000000000081526004016116e990611fff565b60405180910390fd5b6116fb85611320565b61173a576040517f08c379a00000000000000000000000000000000000000000000000000000000081526004016117319061203f565b60405180910390fd5b6000808673ffffffffffffffffffffffffffffffffffffffff1685876040516117639190611e0e565b60006040518083038185875af1925050503d80600081146117a0576040519150601f19603f3d011682016040523d82523d6000602084013e6117a5565b606091505b50915091506117b58282866117c1565b92505050949350505050565b606083156117d157829050611821565b6000835111156117e45782518084602001fd5b816040517f08c379a00000000000000000000000000000000000000000000000000000000081526004016118189190611edd565b60405180910390fd5b9392505050565b6040518060400160405280600073ffffffffffffffffffffffffffffffffffffffff168152602001600081525090565b600061186b611866846120df565b6120ba565b9050808382526020820190508285604086028201111561188a57600080fd5b60005b858110156118ba57816118a0888261192d565b84526020840193506040830192505060018101905061188d565b5050509392505050565b6000813590506118d381612777565b92915050565b6000813590506118e88161278e565b92915050565b600082601f8301126118ff57600080fd5b813561190f848260208601611858565b91505092915050565b600081519050611927816127a5565b92915050565b60006040828403121561193f57600080fd5b61194960406120ba565b90506000611959848285016118c4565b600083015250602061196d84828501611979565b60208301525092915050565b600081359050611988816127bc565b92915050565b60008151905061199d816127bc565b92915050565b6000602082840312156119b557600080fd5b60006119c3848285016118c4565b91505092915050565b6000602082840312156119de57600080fd5b60006119ec848285016118d9565b91505092915050565b60008060408385031215611a0857600080fd5b6000611a16858286016118c4565b9250506020611a2785828601611979565b9150509250929050565b600060208284031215611a4357600080fd5b600082013567ffffffffffffffff811115611a5d57600080fd5b611a69848285016118ee565b91505092915050565b600060208284031215611a8457600080fd5b6000611a9284828501611918565b91505092915050565b600060208284031215611aad57600080fd5b6000611abb84828501611979565b91505092915050565b600060208284031215611ad657600080fd5b6000611ae48482850161198e565b91505092915050565b6000611af98383611b05565b60208301905092915050565b611b0e81612200565b82525050565b611b1d81612200565b82525050565b6000611b2e8261211b565b611b388185612149565b9350611b438361210b565b8060005b83811015611b74578151611b5b8882611aed565b9750611b668361213c565b925050600181019050611b47565b5085935050505092915050565b6000611b8c82612126565b611b96818561215a565b9350611ba681856020860161227e565b80840191505092915050565b611bbb8161225a565b82525050565b6000611bcc82612131565b611bd68185612165565b9350611be681856020860161227e565b611bef81612389565b840191505092915050565b6000611c07602f83612165565b9150611c128261239a565b604082019050919050565b6000611c2a602c83612165565b9150611c35826123e9565b604082019050919050565b6000611c4d602483612165565b9150611c5882612438565b604082019050919050565b6000611c70602683612165565b9150611c7b82612487565b604082019050919050565b6000611c93602583612165565b9150611c9e826124d6565b604082019050919050565b6000611cb6604383612165565b9150611cc182612525565b606082019050919050565b6000611cd9603a83612165565b9150611ce48261259a565b604082019050919050565b6000611cfc602f83612165565b9150611d07826125e9565b604082019050919050565b6000611d1f602683612165565b9150611d2a82612638565b604082019050919050565b6000611d42602083612165565b9150611d4d82612687565b602082019050919050565b6000611d65601d83612165565b9150611d70826126b0565b602082019050919050565b6000611d88602a83612165565b9150611d93826126d9565b604082019050919050565b6000611dab603b83612165565b9150611db682612728565b604082019050919050565b604082016000820151611dd76000850182611b05565b506020820151611dea6020850182611df0565b50505050565b611df981612250565b82525050565b611e0881612250565b82525050565b6000611e1a8284611b81565b915081905092915050565b6000602082019050611e3a6000830184611b14565b92915050565b6000606082019050611e556000830186611b14565b611e626020830185611b14565b611e6f6040830184611dff565b949350505050565b6000604082019050611e8c6000830185611b14565b611e996020830184611dff565b9392505050565b60006020820190508181036000830152611eba8184611b23565b905092915050565b6000602082019050611ed76000830184611bb2565b92915050565b60006020820190508181036000830152611ef78184611bc1565b905092915050565b60006020820190508181036000830152611f1881611bfa565b9050919050565b60006020820190508181036000830152611f3881611c1d565b9050919050565b60006020820190508181036000830152611f5881611c40565b9050919050565b60006020820190508181036000830152611f7881611c63565b9050919050565b60006020820190508181036000830152611f9881611c86565b9050919050565b60006020820190508181036000830152611fb881611ca9565b9050919050565b60006020820190508181036000830152611fd881611ccc565b9050919050565b60006020820190508181036000830152611ff881611cef565b9050919050565b6000602082019050818103600083015261201881611d12565b9050919050565b6000602082019050818103600083015261203881611d35565b9050919050565b6000602082019050818103600083015261205881611d58565b9050919050565b6000602082019050818103600083015261207881611d7b565b9050919050565b6000602082019050818103600083015261209881611d9e565b9050919050565b60006040820190506120b46000830184611dc1565b92915050565b60006120c46120d5565b90506120d082826122b1565b919050565b6000604051905090565b600067ffffffffffffffff8211156120fa576120f961235a565b5b602082029050602081019050919050565b6000819050602082019050919050565b600081519050919050565b600081519050919050565b600081519050919050565b6000602082019050919050565b600082825260208201905092915050565b600081905092915050565b600082825260208201905092915050565b600061218182612250565b915061218c83612250565b9250827fffffffffffffffffffffffffffffffffffffffffffffffffffffffffffffffff038211156121c1576121c061232b565b5b828201905092915050565b60006121d782612250565b91506121e283612250565b9250828210156121f5576121f461232b565b5b828203905092915050565b600061220b82612230565b9050919050565b600061221d82612230565b9050919050565b60008115159050919050565b600073ffffffffffffffffffffffffffffffffffffffff82169050919050565b6000819050919050565b60006122658261226c565b9050919050565b600061227782612230565b9050919050565b60005b8381101561229c578082015181840152602081019050612281565b838111156122ab576000848401525b50505050565b6122ba82612389565b810181811067ffffffffffffffff821117156122d9576122d861235a565b5b80604052505050565b60006122ed82612250565b91507fffffffffffffffffffffffffffffffffffffffffffffffffffffffffffffffff8214156123205761231f61232b565b5b600182019050919050565b7f4e487b7100000000000000000000000000000000000000000000000000000000600052601160045260246000fd5b7f4e487b7100000000000000000000000000000000000000000000000000000000600052604160045260246000fd5b6000601f19601f8301169050919050565b7f436f6d6d756e697479526577617264733a2072656c656173652066726f6d207460008201527f6865207a65726f20616464726573730000000000000000000000000000000000602082015250565b7f436f6d6d756e697479526577617264733a2072657761726420746f207468652060008201527f7a65726f20616464726573730000000000000000000000000000000000000000602082015250565b7f436f6d6d756e697479526577617264733a206c6973742061727261792069732060008201527f6e756c6c00000000000000000000000000000000000000000000000000000000602082015250565b7f4f776e61626c653a206e6577206f776e657220697320746865207a65726f206160008201527f6464726573730000000000000000000000000000000000000000000000000000602082015250565b7f436f6d6d756e697479526577617264733a207468652062616c616e636520697360008201527f207a65726f000000000000000000000000000000000000000000000000000000602082015250565b7f436f6d6d756e697479526577617264733a20546865206e657720746f6b656e2060008201527f77616c6c65742063616e6e6f74206265206120636f6e7472616374206164647260208201527f6573730000000000000000000000000000000000000000000000000000000000604082015250565b7f436f6d6d756e697479526577617264733a20546865206e657720746f6b656e2060008201527f77616c6c657420697320746865207a65726f2061646472657373000000000000602082015250565b7f436f6d6d756e697479526577617264733a207468652062616c616e636520697360008201527f206c657373207468616e207a65726f0000000000000000000000000000000000602082015250565b7f416464726573733a20696e73756666696369656e742062616c616e636520666f60008201527f722063616c6c0000000000000000000000000000000000000000000000000000602082015250565b7f4f776e61626c653a2063616c6c6572206973206e6f7420746865206f776e6572600082015250565b7f416464726573733a2063616c6c20746f206e6f6e2d636f6e7472616374000000600082015250565b7f5361666545524332303a204552433230206f7065726174696f6e20646964206e60008201527f6f74207375636365656400000000000000000000000000000000000000000000602082015250565b7f436f6d6d756e697479526577617264733a20746865207769746864726177616c60008201527f20616d6f756e742065786365656473207468652062616c616e63650000000000602082015250565b61278081612200565b811461278b57600080fd5b50565b61279781612212565b81146127a257600080fd5b50565b6127ae81612224565b81146127b957600080fd5b50565b6127c581612250565b81146127d057600080fd5b5056fea2646970667358221220df343e6af0d1871257b25609d3eeb73fc980070c873758e5b95117842d2b41a064736f6c63430008040033",
  "immutableReferences": {},
  "source": "// SPDX-License-Identifier: MIT\r\npragma solidity ^0.8.0;\r\n\r\nimport \"@openzeppelin/contracts/access/Ownable.sol\";\r\nimport \"@openzeppelin/contracts/utils/math/SafeMath.sol\";\r\nimport \"@openzeppelin/contracts/utils/Address.sol\";\r\nimport \"@openzeppelin/contracts/token/ERC20/utils/SafeERC20.sol\";\r\n\r\ncontract CommunityRewardsApprove is Ownable {\r\n    using SafeMath for uint256;\r\n    using SafeERC20 for IERC20;\r\n\r\n    event releaseEvent(address wallet, address account, uint256 amount);\r\n\r\n    IERC20 public token;\r\n    address public tokenWallet;\r\n\r\n    address[] private _memberList;\r\n\r\n    struct RewardsInfo {\r\n        address rewardsToken;\r\n        uint256 rewardsAmount;\r\n    }\r\n\r\n    struct ReportInfo {\r\n        address token;\r\n        uint256 amount;\r\n    }\r\n\r\n    mapping(address => RewardsInfo) private _rewardsList;\r\n\r\n    constructor(IERC20 _token, address _tokenWallet) Ownable() {\r\n        require(address(_token) != address(0), \"CommunityRewards: token is the zero address\");\r\n        require(_tokenWallet != address(0), \"CommunityRewards: The token wallet is the zero address\");\r\n\r\n        token = _token;\r\n        tokenWallet = _tokenWallet;\r\n    }\r\n\r\n    /**\r\n     * @dev set token wallet\r\n     */\r\n    function setTokenWallet(address newTokenWallet) public onlyOwner {\r\n        require(newTokenWallet != address(0), \"CommunityRewards: The new token wallet is the zero address\");\r\n        require(!Address.isContract(newTokenWallet), \"CommunityRewards: The new token wallet cannot be a contract address\");\r\n        tokenWallet = newTokenWallet;\r\n    }\r\n\r\n    /**\r\n     * @dev get _memberList\r\n     */\r\n    function getMemberList() public onlyOwner view returns (address[] memory) {\r\n        return _memberList;\r\n    }\r\n\r\n    /**\r\n     * @dev get rewards info from the rewardsList\r\n     */\r\n    function getRewardsInfoByAccountForAdmin(address account) public onlyOwner view returns (RewardsInfo memory) {\r\n        return _rewardsList[account];\r\n    }\r\n\r\n    /**\r\n     * @dev get rewards info from the rewardsList\r\n     */\r\n    function getRewardsInfoByAccount() public view returns (RewardsInfo memory) {\r\n        return _rewardsList[msg.sender];\r\n    }\r\n\r\n    /**\r\n     * @dev upload account rewardsAmount\r\n     * @param rewardsToken the token of rewards\r\n     * @param rewardsAmount the amount of update\r\n     */\r\n    function updateRewardsAmount(address rewardsToken, uint256 rewardsAmount) public onlyOwner {\r\n        // Not is 0x address\r\n        require(rewardsToken != address(0), 'CommunityRewards: reward to the zero address');\r\n        // the rewardsAmount must be gte zero\r\n        require(rewardsAmount >= 0, 'CommunityRewards: the balance is less than zero');\r\n\r\n        RewardsInfo storage info = _rewardsList[rewardsToken];\r\n        if (info.rewardsToken != address(0)) {\r\n            info.rewardsAmount = rewardsAmount;\r\n        } else {\r\n            _rewardsList[rewardsToken] = RewardsInfo(rewardsToken, rewardsAmount);\r\n            _memberList.push(rewardsToken);\r\n        }\r\n    }\r\n\r\n    /**\r\n     * @dev upload report to update rewards list data\r\n     * @param list upload data array\r\n     */\r\n    function updateRewardsList(ReportInfo[] memory list) public onlyOwner {\r\n        require(list.length > 0, \"CommunityRewards: list array is null\");\r\n        for (uint i = 0; i < list.length; i++) {\r\n            ReportInfo memory reportInfo = list[i];\r\n            if (reportInfo.amount > 0) {\r\n                _addRewardsTokens(reportInfo.token, reportInfo.amount);\r\n            }\r\n        }\r\n    }\r\n\r\n    /**\r\n     * @dev add rewards list data\r\n     * @param rewardsToken the token of rewards\r\n     * @param rewardsAmount the amount of update\r\n     */\r\n    function _addRewardsTokens(address rewardsToken, uint256 rewardsAmount) internal {\r\n        RewardsInfo storage info = _rewardsList[rewardsToken];\r\n        if (info.rewardsToken != address(0)) {\r\n            info.rewardsAmount = info.rewardsAmount.add(rewardsAmount);\r\n        } else {\r\n            _rewardsList[rewardsToken] = RewardsInfo(rewardsToken, rewardsAmount);\r\n            _memberList.push(rewardsToken);\r\n        }\r\n    }\r\n\r\n    /**\r\n     * @dev admin release\r\n     * @param rewardsToken the token of rewards\r\n     * @param releaseAmount the amount of release\r\n     */\r\n    function releaseByAdmin(address rewardsToken, uint256 releaseAmount) public onlyOwner {\r\n        _release(rewardsToken, releaseAmount);\r\n    }\r\n\r\n    /**\r\n     * @dev self getReward\r\n     * @param getRewardAmount the amount of getReward\r\n     */\r\n    function getReward(uint256 getRewardAmount) public {\r\n        _release(msg.sender, getRewardAmount);\r\n    }\r\n\r\n    /**\r\n     * @dev common release function\r\n     * @param rewardsToken the token of rewards\r\n     * @param releaseAmount the amount of release\r\n     */\r\n    function _release(address rewardsToken, uint256 releaseAmount) internal {\r\n        // Not is 0x address\r\n        require(rewardsToken != address(0), 'CommunityRewards: release from the zero address');\r\n        RewardsInfo storage info = _rewardsList[rewardsToken];\r\n        // the releaseAmount must be gt zero\r\n        require(releaseAmount > 0, 'CommunityRewards: the balance is zero');\r\n        // the balance must be gt zero\r\n        require(info.rewardsAmount > 0, 'CommunityRewards: the balance is zero');\r\n        // releaseAmount must be lt or equal rewardsAmount\r\n        require(releaseAmount <= info.rewardsAmount, 'CommunityRewards: the withdrawal amount exceeds the balance');\r\n\r\n        token.safeTransferFrom(tokenWallet, rewardsToken, releaseAmount);\r\n        info.rewardsAmount = info.rewardsAmount.sub(releaseAmount);\r\n\r\n        emit releaseEvent(tokenWallet, rewardsToken, releaseAmount);\r\n    }\r\n\r\n    function killSelf(address payable recipientToken) public onlyOwner {\r\n        uint256 contractBalance = token.balanceOf(address(this));\r\n        token.safeTransfer(recipientToken, contractBalance);\r\n\r\n        selfdestruct(recipientToken);\r\n    }\r\n}\r\n",
  "sourcePath": "D:\\Workspaces\\DaoswapDex\\daoswapdex-heco-testnet\\core-rewards\\contracts\\CommunityRewardsApprove.sol",
  "compiler": {
    "name": "solc",
    "version": "0.8.4+commit.c7e474f2.Emscripten.clang"
  },
  "schemaVersion": "3.4.3",
  "updatedAt": "2021-11-18T05:07:04.102Z",
  "networkType": "ethereum",
  "devdoc": {
    "kind": "dev",
    "methods": {
      "getMemberList()": {
        "details": "get _memberList"
      },
      "getReward(uint256)": {
        "details": "self getReward",
        "params": {
          "getRewardAmount": "the amount of getReward"
        }
      },
      "getRewardsInfoByAccount()": {
        "details": "get rewards info from the rewardsList"
      },
      "getRewardsInfoByAccountForAdmin(address)": {
        "details": "get rewards info from the rewardsList"
      },
      "owner()": {
        "details": "Returns the address of the current owner."
      },
      "releaseByAdmin(address,uint256)": {
        "details": "admin release",
        "params": {
          "releaseAmount": "the amount of release",
          "rewardsToken": "the token of rewards"
        }
      },
      "renounceOwnership()": {
        "details": "Leaves the contract without owner. It will not be possible to call `onlyOwner` functions anymore. Can only be called by the current owner. NOTE: Renouncing ownership will leave the contract without an owner, thereby removing any functionality that is only available to the owner."
      },
      "setTokenWallet(address)": {
        "details": "set token wallet"
      },
      "transferOwnership(address)": {
        "details": "Transfers ownership of the contract to a new account (`newOwner`). Can only be called by the current owner."
      },
      "updateRewardsAmount(address,uint256)": {
        "details": "upload account rewardsAmount",
        "params": {
          "rewardsAmount": "the amount of update",
          "rewardsToken": "the token of rewards"
        }
      },
      "updateRewardsList((address,uint256)[])": {
        "details": "upload report to update rewards list data",
        "params": {
          "list": "upload data array"
        }
      }
    },
    "version": 1
  },
  "userdoc": {
    "kind": "user",
    "methods": {},
    "version": 1
  }
}